{
  "_format": "hh-sol-artifact-1",
  "contractName": "Property",
  "sourceName": "contracts/Property.sol",
  "abi": [
    {
      "inputs": [],
      "name": "Property__NotOwner",
      "type": "error"
    },
    {
      "inputs": [
        {
          "internalType": "uint256",
          "name": "id",
          "type": "uint256"
        }
      ],
      "name": "paytoProperty",
      "outputs": [],
      "stateMutability": "payable",
      "type": "function"
    },
    {
      "inputs": [
        {
          "internalType": "uint256",
          "name": "_pid",
          "type": "uint256"
        },
        {
          "internalType": "address[]",
          "name": "_shareholders",
          "type": "address[]"
        },
        {
          "internalType": "uint256[]",
          "name": "_percentage",
          "type": "uint256[]"
        },
        {
          "internalType": "uint256",
          "name": "_price",
          "type": "uint256"
        },
        {
          "internalType": "address",
          "name": "_owner",
          "type": "address"
        }
      ],
      "name": "setProperty",
      "outputs": [],
      "stateMutability": "nonpayable",
      "type": "function"
    },
    {
      "inputs": [
        {
          "internalType": "uint256",
          "name": "id",
          "type": "uint256"
        }
      ],
      "name": "withdraw",
      "outputs": [],
      "stateMutability": "nonpayable",
      "type": "function"
    }
  ],
  "bytecode": "0x608060405234801561001057600080fd5b50610c47806100206000396000f3fe6080604052600436106100345760003560e01c80632e1a7d4d1461003957806334870a781461006257806346d5e5c01461008b575b600080fd5b34801561004557600080fd5b50610060600480360381019061005b91906105e6565b6100a7565b005b34801561006e57600080fd5b506100896004803603810190610084919061088d565b610314565b005b6100a560048036038101906100a091906105e6565b61042d565b005b803373ffffffffffffffffffffffffffffffffffffffff1660008083815260200190815260200160002060040160009054906101000a900473ffffffffffffffffffffffffffffffffffffffff1673ffffffffffffffffffffffffffffffffffffffff1614610142576040517fd5694d5e00000000000000000000000000000000000000000000000000000000815260040160405180910390fd5b60008060008481526020019081526020016000209050600081600501541161019f576040517f08c379a00000000000000000000000000000000000000000000000000000000081526004016101969061099d565b60405180910390fd5b60008160050154905060005b82600101805490508110156103035760008360010182815481106101d2576101d16109bd565b5b9060005260206000200160009054906101000a900473ffffffffffffffffffffffffffffffffffffffff1690506000846002018381548110610217576102166109bd565b5b906000526020600020015490506000606482866102349190610a1b565b61023e9190610a8c565b905060008373ffffffffffffffffffffffffffffffffffffffff168260405161026690610aee565b60006040518083038185875af1925050503d80600081146102a3576040519150601f19603f3d011682016040523d82523d6000602084013e6102a8565b606091505b50509050806102ec576040517f08c379a00000000000000000000000000000000000000000000000000000000081526004016102e390610b75565b60405180910390fd5b5050505080806102fb90610b95565b9150506101ab565b506000826005018190555050505050565b61031c61045c565b8281606001818152505084816020018190525083816040018190525081816080019073ffffffffffffffffffffffffffffffffffffffff16908173ffffffffffffffffffffffffffffffffffffffff1681525050806000808881526020019081526020016000206000820151816000015560208201518160010190805190602001906103a99291906104a8565b5060408201518160020190805190602001906103c6929190610532565b506060820151816003015560808201518160040160006101000a81548173ffffffffffffffffffffffffffffffffffffffff021916908373ffffffffffffffffffffffffffffffffffffffff16021790555060a08201518160050155905050505050505050565b3460008083815260200190815260200160002060050160008282546104529190610bdd565b9250508190555050565b6040518060c0016040528060008152602001606081526020016060815260200160008152602001600073ffffffffffffffffffffffffffffffffffffffff168152602001600081525090565b828054828255906000526020600020908101928215610521579160200282015b828111156105205782518260006101000a81548173ffffffffffffffffffffffffffffffffffffffff021916908373ffffffffffffffffffffffffffffffffffffffff160217905550916020019190600101906104c8565b5b50905061052e919061057f565b5090565b82805482825590600052602060002090810192821561056e579160200282015b8281111561056d578251825591602001919060010190610552565b5b50905061057b919061057f565b5090565b5b80821115610598576000816000905550600101610580565b5090565b6000604051905090565b600080fd5b600080fd5b6000819050919050565b6105c3816105b0565b81146105ce57600080fd5b50565b6000813590506105e0816105ba565b92915050565b6000602082840312156105fc576105fb6105a6565b5b600061060a848285016105d1565b91505092915050565b600080fd5b6000601f19601f8301169050919050565b7f4e487b7100000000000000000000000000000000000000000000000000000000600052604160045260246000fd5b61066182610618565b810181811067ffffffffffffffff821117156106805761067f610629565b5b80604052505050565b600061069361059c565b905061069f8282610658565b919050565b600067ffffffffffffffff8211156106bf576106be610629565b5b602082029050602081019050919050565b600080fd5b600073ffffffffffffffffffffffffffffffffffffffff82169050919050565b6000610700826106d5565b9050919050565b610710816106f5565b811461071b57600080fd5b50565b60008135905061072d81610707565b92915050565b6000610746610741846106a4565b610689565b90508083825260208201905060208402830185811115610769576107686106d0565b5b835b81811015610792578061077e888261071e565b84526020840193505060208101905061076b565b5050509392505050565b600082601f8301126107b1576107b0610613565b5b81356107c1848260208601610733565b91505092915050565b600067ffffffffffffffff8211156107e5576107e4610629565b5b602082029050602081019050919050565b6000610809610804846107ca565b610689565b9050808382526020820190506020840283018581111561082c5761082b6106d0565b5b835b81811015610855578061084188826105d1565b84526020840193505060208101905061082e565b5050509392505050565b600082601f83011261087457610873610613565b5b81356108848482602086016107f6565b91505092915050565b600080600080600060a086880312156108a9576108a86105a6565b5b60006108b7888289016105d1565b955050602086013567ffffffffffffffff8111156108d8576108d76105ab565b5b6108e48882890161079c565b945050604086013567ffffffffffffffff811115610905576109046105ab565b5b6109118882890161085f565b9350506060610922888289016105d1565b92505060806109338882890161071e565b9150509295509295909350565b600082825260208201905092915050565b7f4e6f2066756e647320746f207769746864726177000000000000000000000000600082015250565b6000610987601483610940565b915061099282610951565b602082019050919050565b600060208201905081810360008301526109b68161097a565b9050919050565b7f4e487b7100000000000000000000000000000000000000000000000000000000600052603260045260246000fd5b7f4e487b7100000000000000000000000000000000000000000000000000000000600052601160045260246000fd5b6000610a26826105b0565b9150610a31836105b0565b9250828202610a3f816105b0565b91508282048414831517610a5657610a556109ec565b5b5092915050565b7f4e487b7100000000000000000000000000000000000000000000000000000000600052601260045260246000fd5b6000610a97826105b0565b9150610aa2836105b0565b925082610ab257610ab1610a5d565b5b828204905092915050565b600081905092915050565b50565b6000610ad8600083610abd565b9150610ae382610ac8565b600082019050919050565b6000610af982610acb565b9150819050919050565b7f4661696c656420746f2073656e642066756e647320746f207368617265686f6c60008201527f6465720000000000000000000000000000000000000000000000000000000000602082015250565b6000610b5f602383610940565b9150610b6a82610b03565b604082019050919050565b60006020820190508181036000830152610b8e81610b52565b9050919050565b6000610ba0826105b0565b91507fffffffffffffffffffffffffffffffffffffffffffffffffffffffffffffffff8203610bd257610bd16109ec565b5b600182019050919050565b6000610be8826105b0565b9150610bf3836105b0565b9250828201905080821115610c0b57610c0a6109ec565b5b9291505056fea264697066735822122027950e7ea0ad7507ece659b12b22e7dbed159d487c5892f44757035c0da2f61b64736f6c63430008130033",
  "linkReferences": {},
  "deployedLinkReferences": {}
}