{
  "_format": "hh-sol-artifact-1",
  "contractName": "Property",
  "sourceName": "contracts/Property.sol",
  "abi": [
    {
      "inputs": [],
      "name": "Property__NotOwner",
      "type": "error"
    },
    {
      "anonymous": false,
      "inputs": [
        {
          "components": [
            {
              "internalType": "uint32",
              "name": "pid",
              "type": "uint32"
            },
            {
              "internalType": "string",
              "name": "name",
              "type": "string"
            },
            {
              "internalType": "address[]",
              "name": "shareholders",
              "type": "address[]"
            },
            {
              "internalType": "uint256[]",
              "name": "percentage",
              "type": "uint256[]"
            },
            {
              "internalType": "uint256",
              "name": "price",
              "type": "uint256"
            },
            {
              "internalType": "address",
              "name": "owner",
              "type": "address"
            },
            {
              "internalType": "uint256",
              "name": "received",
              "type": "uint256"
            }
          ],
          "indexed": false,
          "internalType": "struct Property.property",
          "name": "currProp",
          "type": "tuple"
        }
      ],
      "name": "addProp",
      "type": "event"
    },
    {
      "inputs": [],
      "name": "getMyProperty",
      "outputs": [
        {
          "components": [
            {
              "internalType": "uint32",
              "name": "pid",
              "type": "uint32"
            },
            {
              "internalType": "string",
              "name": "name",
              "type": "string"
            },
            {
              "internalType": "address[]",
              "name": "shareholders",
              "type": "address[]"
            },
            {
              "internalType": "uint256[]",
              "name": "percentage",
              "type": "uint256[]"
            },
            {
              "internalType": "uint256",
              "name": "price",
              "type": "uint256"
            },
            {
              "internalType": "address",
              "name": "owner",
              "type": "address"
            },
            {
              "internalType": "uint256",
              "name": "received",
              "type": "uint256"
            }
          ],
          "internalType": "struct Property.property[]",
          "name": "",
          "type": "tuple[]"
        }
      ],
      "stateMutability": "view",
      "type": "function"
    },
    {
      "inputs": [
        {
          "internalType": "address",
          "name": "owner",
          "type": "address"
        }
      ],
      "name": "getbalance",
      "outputs": [
        {
          "internalType": "uint256",
          "name": "",
          "type": "uint256"
        }
      ],
      "stateMutability": "view",
      "type": "function"
    },
    {
      "inputs": [
        {
          "internalType": "uint256",
          "name": "id",
          "type": "uint256"
        }
      ],
      "name": "getpropertydetail",
      "outputs": [
        {
          "components": [
            {
              "internalType": "uint32",
              "name": "pid",
              "type": "uint32"
            },
            {
              "internalType": "string",
              "name": "name",
              "type": "string"
            },
            {
              "internalType": "address[]",
              "name": "shareholders",
              "type": "address[]"
            },
            {
              "internalType": "uint256[]",
              "name": "percentage",
              "type": "uint256[]"
            },
            {
              "internalType": "uint256",
              "name": "price",
              "type": "uint256"
            },
            {
              "internalType": "address",
              "name": "owner",
              "type": "address"
            },
            {
              "internalType": "uint256",
              "name": "received",
              "type": "uint256"
            }
          ],
          "internalType": "struct Property.property",
          "name": "",
          "type": "tuple"
        }
      ],
      "stateMutability": "view",
      "type": "function"
    },
    {
      "inputs": [
        {
          "internalType": "uint256",
          "name": "id",
          "type": "uint256"
        }
      ],
      "name": "paytoProperty",
      "outputs": [],
      "stateMutability": "payable",
      "type": "function"
    },
    {
      "inputs": [
        {
          "internalType": "string",
          "name": "_name",
          "type": "string"
        },
        {
          "internalType": "address[]",
          "name": "_shareholders",
          "type": "address[]"
        },
        {
          "internalType": "uint256[]",
          "name": "_percentage",
          "type": "uint256[]"
        },
        {
          "internalType": "uint256",
          "name": "_price",
          "type": "uint256"
        },
        {
          "internalType": "address",
          "name": "_owner",
          "type": "address"
        }
      ],
      "name": "setProperty",
      "outputs": [],
      "stateMutability": "nonpayable",
      "type": "function"
    },
    {
      "inputs": [
        {
          "internalType": "uint256",
          "name": "id",
          "type": "uint256"
        }
      ],
      "name": "withdraw",
      "outputs": [],
      "stateMutability": "nonpayable",
      "type": "function"
    }
  ],
  "bytecode": "0x608060405260008060006101000a81548163ffffffff021916908363ffffffff16021790555034801561003157600080fd5b50611db8806100416000396000f3fe6080604052600436106100555760003560e01c80632e1a7d4d1461005a5780634024708a1461008357806346d5e5c0146100ae57806368116177146100ca578063813ed3a114610107578063d5c02b1014610130575b600080fd5b34801561006657600080fd5b50610081600480360381019061007c9190610eb1565b61016d565b005b34801561008f57600080fd5b506100986103dc565b6040516100a591906112a7565b60405180910390f35b6100c860048036038101906100c39190610eb1565b610680565b005b3480156100d657600080fd5b506100f160048036038101906100ec91906112f5565b6106b0565b6040516100fe9190611331565b60405180910390f35b34801561011357600080fd5b5061012e6004803603810190610129919061160c565b610791565b005b34801561013c57600080fd5b5061015760048036038101906101529190610eb1565b610ae5565b6040516101649190611785565b60405180910390f35b803373ffffffffffffffffffffffffffffffffffffffff166001600083815260200190815260200160002060050160009054906101000a900473ffffffffffffffffffffffffffffffffffffffff1673ffffffffffffffffffffffffffffffffffffffff1614610209576040517fd5694d5e00000000000000000000000000000000000000000000000000000000815260040160405180910390fd5b60006001600084815260200190815260200160002090506000816006015411610267576040517f08c379a000000000000000000000000000000000000000000000000000000000815260040161025e90611804565b60405180910390fd5b60008160060154905060005b82600201805490508110156103cb57600083600201828154811061029a57610299611824565b5b9060005260206000200160009054906101000a900473ffffffffffffffffffffffffffffffffffffffff16905060008460030183815481106102df576102de611824565b5b906000526020600020015490506000606482866102fc9190611882565b61030691906118f3565b905060008373ffffffffffffffffffffffffffffffffffffffff168260405161032e90611955565b60006040518083038185875af1925050503d806000811461036b576040519150601f19603f3d011682016040523d82523d6000602084013e610370565b606091505b50509050806103b4576040517f08c379a00000000000000000000000000000000000000000000000000000000081526004016103ab906119dc565b60405180910390fd5b5050505080806103c3906119fc565b915050610273565b506000826006018190555050505050565b6060600260003373ffffffffffffffffffffffffffffffffffffffff1673ffffffffffffffffffffffffffffffffffffffff168152602001908152602001600020805480602002602001604051908101604052809291908181526020016000905b8282101561067757838290600052602060002090600702016040518060e00160405290816000820160009054906101000a900463ffffffff1663ffffffff1663ffffffff16815260200160018201805461049690611a73565b80601f01602080910402602001604051908101604052809291908181526020018280546104c290611a73565b801561050f5780601f106104e45761010080835404028352916020019161050f565b820191906000526020600020905b8154815290600101906020018083116104f257829003601f168201915b505050505081526020016002820180548060200260200160405190810160405280929190818152602001828054801561059d57602002820191906000526020600020905b8160009054906101000a900473ffffffffffffffffffffffffffffffffffffffff1673ffffffffffffffffffffffffffffffffffffffff1681526020019060010190808311610553575b50505050508152602001600382018054806020026020016040519081016040528092919081815260200182805480156105f557602002820191906000526020600020905b8154815260200190600101908083116105e1575b50505050508152602001600482015481526020016005820160009054906101000a900473ffffffffffffffffffffffffffffffffffffffff1673ffffffffffffffffffffffffffffffffffffffff1673ffffffffffffffffffffffffffffffffffffffff1681526020016006820154815250508152602001906001019061043d565b50505050905090565b346001600083815260200190815260200160002060060160008282546106a69190611aa4565b9250508190555050565b6000806000905060005b600260008573ffffffffffffffffffffffffffffffffffffffff1673ffffffffffffffffffffffffffffffffffffffff1681526020019081526020016000208054905081101561078757600260008573ffffffffffffffffffffffffffffffffffffffff1673ffffffffffffffffffffffffffffffffffffffff168152602001908152602001600020818154811061075557610754611824565b5b906000526020600020906007020160060154826107729190611aa4565b9150808061077f906119fc565b9150506106ba565b5080915050919050565b610799610d1a565b60008054906101000a900463ffffffff16816000019063ffffffff16908163ffffffff168152505085816020018190525082816080018181525050848160400181905250838160600181905250818160a0019073ffffffffffffffffffffffffffffffffffffffff16908173ffffffffffffffffffffffffffffffffffffffff168152505060008160c001818152505080600160008060009054906101000a900463ffffffff1663ffffffff16815260200190815260200160002060008201518160000160006101000a81548163ffffffff021916908363ffffffff16021790555060208201518160010190816108909190611c84565b5060408201518160020190805190602001906108ad929190610d73565b5060608201518160030190805190602001906108ca929190610dfd565b506080820151816004015560a08201518160050160006101000a81548173ffffffffffffffffffffffffffffffffffffffff021916908373ffffffffffffffffffffffffffffffffffffffff16021790555060c08201518160060155905050600260003373ffffffffffffffffffffffffffffffffffffffff1673ffffffffffffffffffffffffffffffffffffffff16815260200190815260200160002081908060018154018082558091505060019003906000526020600020906007020160009091909190915060008201518160000160006101000a81548163ffffffff021916908363ffffffff16021790555060208201518160010190816109ce9190611c84565b5060408201518160020190805190602001906109eb929190610d73565b506060820151816003019080519060200190610a08929190610dfd565b506080820151816004015560a08201518160050160006101000a81548173ffffffffffffffffffffffffffffffffffffffff021916908373ffffffffffffffffffffffffffffffffffffffff16021790555060c08201518160060155505060008081819054906101000a900463ffffffff1680929190610a8790611d56565b91906101000a81548163ffffffff021916908363ffffffff160217905550507f1a178864936ced3be68194bf3b46f55fa35eb9565af22192bd65be141c90223981604051610ad59190611785565b60405180910390a1505050505050565b610aed610d1a565b600160008381526020019081526020016000206040518060e00160405290816000820160009054906101000a900463ffffffff1663ffffffff1663ffffffff168152602001600182018054610b4190611a73565b80601f0160208091040260200160405190810160405280929190818152602001828054610b6d90611a73565b8015610bba5780601f10610b8f57610100808354040283529160200191610bba565b820191906000526020600020905b815481529060010190602001808311610b9d57829003601f168201915b5050505050815260200160028201805480602002602001604051908101604052809291908181526020018280548015610c4857602002820191906000526020600020905b8160009054906101000a900473ffffffffffffffffffffffffffffffffffffffff1673ffffffffffffffffffffffffffffffffffffffff1681526020019060010190808311610bfe575b5050505050815260200160038201805480602002602001604051908101604052809291908181526020018280548015610ca057602002820191906000526020600020905b815481526020019060010190808311610c8c575b50505050508152602001600482015481526020016005820160009054906101000a900473ffffffffffffffffffffffffffffffffffffffff1673ffffffffffffffffffffffffffffffffffffffff1673ffffffffffffffffffffffffffffffffffffffff1681526020016006820154815250509050919050565b6040518060e00160405280600063ffffffff16815260200160608152602001606081526020016060815260200160008152602001600073ffffffffffffffffffffffffffffffffffffffff168152602001600081525090565b828054828255906000526020600020908101928215610dec579160200282015b82811115610deb5782518260006101000a81548173ffffffffffffffffffffffffffffffffffffffff021916908373ffffffffffffffffffffffffffffffffffffffff16021790555091602001919060010190610d93565b5b509050610df99190610e4a565b5090565b828054828255906000526020600020908101928215610e39579160200282015b82811115610e38578251825591602001919060010190610e1d565b5b509050610e469190610e4a565b5090565b5b80821115610e63576000816000905550600101610e4b565b5090565b6000604051905090565b600080fd5b600080fd5b6000819050919050565b610e8e81610e7b565b8114610e9957600080fd5b50565b600081359050610eab81610e85565b92915050565b600060208284031215610ec757610ec6610e71565b5b6000610ed584828501610e9c565b91505092915050565b600081519050919050565b600082825260208201905092915050565b6000819050602082019050919050565b600063ffffffff82169050919050565b610f2381610f0a565b82525050565b600081519050919050565b600082825260208201905092915050565b60005b83811015610f63578082015181840152602081019050610f48565b60008484015250505050565b6000601f19601f8301169050919050565b6000610f8b82610f29565b610f958185610f34565b9350610fa5818560208601610f45565b610fae81610f6f565b840191505092915050565b600081519050919050565b600082825260208201905092915050565b6000819050602082019050919050565b600073ffffffffffffffffffffffffffffffffffffffff82169050919050565b600061101082610fe5565b9050919050565b61102081611005565b82525050565b60006110328383611017565b60208301905092915050565b6000602082019050919050565b600061105682610fb9565b6110608185610fc4565b935061106b83610fd5565b8060005b8381101561109c5781516110838882611026565b975061108e8361103e565b92505060018101905061106f565b5085935050505092915050565b600081519050919050565b600082825260208201905092915050565b6000819050602082019050919050565b6110de81610e7b565b82525050565b60006110f083836110d5565b60208301905092915050565b6000602082019050919050565b6000611114826110a9565b61111e81856110b4565b9350611129836110c5565b8060005b8381101561115a57815161114188826110e4565b975061114c836110fc565b92505060018101905061112d565b5085935050505092915050565b600060e08301600083015161117f6000860182610f1a565b50602083015184820360208601526111978282610f80565b915050604083015184820360408601526111b1828261104b565b915050606083015184820360608601526111cb8282611109565b91505060808301516111e060808601826110d5565b5060a08301516111f360a0860182611017565b5060c083015161120660c08601826110d5565b508091505092915050565b600061121d8383611167565b905092915050565b6000602082019050919050565b600061123d82610ede565b6112478185610ee9565b93508360208202850161125985610efa565b8060005b8581101561129557848403895281516112768582611211565b945061128183611225565b925060208a0199505060018101905061125d565b50829750879550505050505092915050565b600060208201905081810360008301526112c18184611232565b905092915050565b6112d281611005565b81146112dd57600080fd5b50565b6000813590506112ef816112c9565b92915050565b60006020828403121561130b5761130a610e71565b5b6000611319848285016112e0565b91505092915050565b61132b81610e7b565b82525050565b60006020820190506113466000830184611322565b92915050565b600080fd5b600080fd5b7f4e487b7100000000000000000000000000000000000000000000000000000000600052604160045260246000fd5b61138e82610f6f565b810181811067ffffffffffffffff821117156113ad576113ac611356565b5b80604052505050565b60006113c0610e67565b90506113cc8282611385565b919050565b600067ffffffffffffffff8211156113ec576113eb611356565b5b6113f582610f6f565b9050602081019050919050565b82818337600083830152505050565b600061142461141f846113d1565b6113b6565b9050828152602081018484840111156114405761143f611351565b5b61144b848285611402565b509392505050565b600082601f8301126114685761146761134c565b5b8135611478848260208601611411565b91505092915050565b600067ffffffffffffffff82111561149c5761149b611356565b5b602082029050602081019050919050565b600080fd5b60006114c56114c084611481565b6113b6565b905080838252602082019050602084028301858111156114e8576114e76114ad565b5b835b8181101561151157806114fd88826112e0565b8452602084019350506020810190506114ea565b5050509392505050565b600082601f8301126115305761152f61134c565b5b81356115408482602086016114b2565b91505092915050565b600067ffffffffffffffff82111561156457611563611356565b5b602082029050602081019050919050565b600061158861158384611549565b6113b6565b905080838252602082019050602084028301858111156115ab576115aa6114ad565b5b835b818110156115d457806115c08882610e9c565b8452602084019350506020810190506115ad565b5050509392505050565b600082601f8301126115f3576115f261134c565b5b8135611603848260208601611575565b91505092915050565b600080600080600060a0868803121561162857611627610e71565b5b600086013567ffffffffffffffff81111561164657611645610e76565b5b61165288828901611453565b955050602086013567ffffffffffffffff81111561167357611672610e76565b5b61167f8882890161151b565b945050604086013567ffffffffffffffff8111156116a05761169f610e76565b5b6116ac888289016115de565b93505060606116bd88828901610e9c565b92505060806116ce888289016112e0565b9150509295509295909350565b600060e0830160008301516116f36000860182610f1a565b506020830151848203602086015261170b8282610f80565b91505060408301518482036040860152611725828261104b565b9150506060830151848203606086015261173f8282611109565b915050608083015161175460808601826110d5565b5060a083015161176760a0860182611017565b5060c083015161177a60c08601826110d5565b508091505092915050565b6000602082019050818103600083015261179f81846116db565b905092915050565b600082825260208201905092915050565b7f4e6f2066756e647320746f207769746864726177000000000000000000000000600082015250565b60006117ee6014836117a7565b91506117f9826117b8565b602082019050919050565b6000602082019050818103600083015261181d816117e1565b9050919050565b7f4e487b7100000000000000000000000000000000000000000000000000000000600052603260045260246000fd5b7f4e487b7100000000000000000000000000000000000000000000000000000000600052601160045260246000fd5b600061188d82610e7b565b915061189883610e7b565b92508282026118a681610e7b565b915082820484148315176118bd576118bc611853565b5b5092915050565b7f4e487b7100000000000000000000000000000000000000000000000000000000600052601260045260246000fd5b60006118fe82610e7b565b915061190983610e7b565b925082611919576119186118c4565b5b828204905092915050565b600081905092915050565b50565b600061193f600083611924565b915061194a8261192f565b600082019050919050565b600061196082611932565b9150819050919050565b7f4661696c656420746f2073656e642066756e647320746f207368617265686f6c60008201527f6465720000000000000000000000000000000000000000000000000000000000602082015250565b60006119c66023836117a7565b91506119d18261196a565b604082019050919050565b600060208201905081810360008301526119f5816119b9565b9050919050565b6000611a0782610e7b565b91507fffffffffffffffffffffffffffffffffffffffffffffffffffffffffffffffff8203611a3957611a38611853565b5b600182019050919050565b7f4e487b7100000000000000000000000000000000000000000000000000000000600052602260045260246000fd5b60006002820490506001821680611a8b57607f821691505b602082108103611a9e57611a9d611a44565b5b50919050565b6000611aaf82610e7b565b9150611aba83610e7b565b9250828201905080821115611ad257611ad1611853565b5b92915050565b60008190508160005260206000209050919050565b60006020601f8301049050919050565b600082821b905092915050565b600060088302611b3a7fffffffffffffffffffffffffffffffffffffffffffffffffffffffffffffffff82611afd565b611b448683611afd565b95508019841693508086168417925050509392505050565b6000819050919050565b6000611b81611b7c611b7784610e7b565b611b5c565b610e7b565b9050919050565b6000819050919050565b611b9b83611b66565b611baf611ba782611b88565b848454611b0a565b825550505050565b600090565b611bc4611bb7565b611bcf818484611b92565b505050565b5b81811015611bf357611be8600082611bbc565b600181019050611bd5565b5050565b601f821115611c3857611c0981611ad8565b611c1284611aed565b81016020851015611c21578190505b611c35611c2d85611aed565b830182611bd4565b50505b505050565b600082821c905092915050565b6000611c5b60001984600802611c3d565b1980831691505092915050565b6000611c748383611c4a565b9150826002028217905092915050565b611c8d82610f29565b67ffffffffffffffff811115611ca657611ca5611356565b5b611cb08254611a73565b611cbb828285611bf7565b600060209050601f831160018114611cee5760008415611cdc578287015190505b611ce68582611c68565b865550611d4e565b601f198416611cfc86611ad8565b60005b82811015611d2457848901518255600182019150602085019450602081019050611cff565b86831015611d415784890151611d3d601f891682611c4a565b8355505b6001600288020188555050505b505050505050565b6000611d6182610f0a565b915063ffffffff8203611d7757611d76611853565b5b60018201905091905056fea2646970667358221220560d7ccb1a8e23856d919222933170d8cd46eaa14256ab0facdc5db82dc0db6064736f6c63430008130033",
  "linkReferences": {},
  "deployedLinkReferences": {}
}